{
  "_format": "hh-sol-artifact-1",
  "contractName": "MyEpicNFT",
  "sourceName": "contracts/MyEpicNFT.sol",
  "abi": [
    {
      "inputs": [],
      "stateMutability": "nonpayable",
      "type": "constructor"
    },
    {
      "anonymous": false,
      "inputs": [
        {
          "indexed": true,
          "internalType": "address",
          "name": "owner",
          "type": "address"
        },
        {
          "indexed": true,
          "internalType": "address",
          "name": "approved",
          "type": "address"
        },
        {
          "indexed": true,
          "internalType": "uint256",
          "name": "tokenId",
          "type": "uint256"
        }
      ],
      "name": "Approval",
      "type": "event"
    },
    {
      "anonymous": false,
      "inputs": [
        {
          "indexed": true,
          "internalType": "address",
          "name": "owner",
          "type": "address"
        },
        {
          "indexed": true,
          "internalType": "address",
          "name": "operator",
          "type": "address"
        },
        {
          "indexed": false,
          "internalType": "bool",
          "name": "approved",
          "type": "bool"
        }
      ],
      "name": "ApprovalForAll",
      "type": "event"
    },
    {
      "anonymous": false,
      "inputs": [
        {
          "indexed": false,
          "internalType": "address",
          "name": "sender",
          "type": "address"
        },
        {
          "indexed": false,
          "internalType": "uint256",
          "name": "tokenId",
          "type": "uint256"
        }
      ],
      "name": "NewEpicNFTMinted",
      "type": "event"
    },
    {
      "anonymous": false,
      "inputs": [
        {
          "indexed": true,
          "internalType": "address",
          "name": "from",
          "type": "address"
        },
        {
          "indexed": true,
          "internalType": "address",
          "name": "to",
          "type": "address"
        },
        {
          "indexed": true,
          "internalType": "uint256",
          "name": "tokenId",
          "type": "uint256"
        }
      ],
      "name": "Transfer",
      "type": "event"
    },
    {
      "inputs": [
        {
          "internalType": "address",
          "name": "to",
          "type": "address"
        },
        {
          "internalType": "uint256",
          "name": "tokenId",
          "type": "uint256"
        }
      ],
      "name": "approve",
      "outputs": [],
      "stateMutability": "nonpayable",
      "type": "function"
    },
    {
      "inputs": [
        {
          "internalType": "address",
          "name": "owner",
          "type": "address"
        }
      ],
      "name": "balanceOf",
      "outputs": [
        {
          "internalType": "uint256",
          "name": "",
          "type": "uint256"
        }
      ],
      "stateMutability": "view",
      "type": "function"
    },
    {
      "inputs": [
        {
          "internalType": "uint256",
          "name": "tokenId",
          "type": "uint256"
        }
      ],
      "name": "getApproved",
      "outputs": [
        {
          "internalType": "address",
          "name": "",
          "type": "address"
        }
      ],
      "stateMutability": "view",
      "type": "function"
    },
    {
      "inputs": [],
      "name": "getTotalNFTsMintedSoFar",
      "outputs": [
        {
          "internalType": "uint256",
          "name": "",
          "type": "uint256"
        }
      ],
      "stateMutability": "view",
      "type": "function"
    },
    {
      "inputs": [
        {
          "internalType": "address",
          "name": "owner",
          "type": "address"
        },
        {
          "internalType": "address",
          "name": "operator",
          "type": "address"
        }
      ],
      "name": "isApprovedForAll",
      "outputs": [
        {
          "internalType": "bool",
          "name": "",
          "type": "bool"
        }
      ],
      "stateMutability": "view",
      "type": "function"
    },
    {
      "inputs": [],
      "name": "makeAnEpicNFT",
      "outputs": [],
      "stateMutability": "nonpayable",
      "type": "function"
    },
    {
      "inputs": [],
      "name": "maxSupply",
      "outputs": [
        {
          "internalType": "uint256",
          "name": "",
          "type": "uint256"
        }
      ],
      "stateMutability": "view",
      "type": "function"
    },
    {
      "inputs": [],
      "name": "name",
      "outputs": [
        {
          "internalType": "string",
          "name": "",
          "type": "string"
        }
      ],
      "stateMutability": "view",
      "type": "function"
    },
    {
      "inputs": [
        {
          "internalType": "uint256",
          "name": "tokenId",
          "type": "uint256"
        }
      ],
      "name": "ownerOf",
      "outputs": [
        {
          "internalType": "address",
          "name": "",
          "type": "address"
        }
      ],
      "stateMutability": "view",
      "type": "function"
    },
    {
      "inputs": [
        {
          "internalType": "uint256",
          "name": "tokenId",
          "type": "uint256"
        }
      ],
      "name": "pickRandomColor",
      "outputs": [
        {
          "internalType": "string",
          "name": "",
          "type": "string"
        }
      ],
      "stateMutability": "view",
      "type": "function"
    },
    {
      "inputs": [
        {
          "internalType": "uint256",
          "name": "tokenId",
          "type": "uint256"
        }
      ],
      "name": "pickRandomFirstWord",
      "outputs": [
        {
          "internalType": "string",
          "name": "",
          "type": "string"
        }
      ],
      "stateMutability": "view",
      "type": "function"
    },
    {
      "inputs": [
        {
          "internalType": "uint256",
          "name": "tokenId",
          "type": "uint256"
        }
      ],
      "name": "pickRandomSecondWord",
      "outputs": [
        {
          "internalType": "string",
          "name": "",
          "type": "string"
        }
      ],
      "stateMutability": "view",
      "type": "function"
    },
    {
      "inputs": [
        {
          "internalType": "uint256",
          "name": "tokenId",
          "type": "uint256"
        }
      ],
      "name": "pickRandomThirdWord",
      "outputs": [
        {
          "internalType": "string",
          "name": "",
          "type": "string"
        }
      ],
      "stateMutability": "view",
      "type": "function"
    },
    {
      "inputs": [
        {
          "internalType": "address",
          "name": "from",
          "type": "address"
        },
        {
          "internalType": "address",
          "name": "to",
          "type": "address"
        },
        {
          "internalType": "uint256",
          "name": "tokenId",
          "type": "uint256"
        }
      ],
      "name": "safeTransferFrom",
      "outputs": [],
      "stateMutability": "nonpayable",
      "type": "function"
    },
    {
      "inputs": [
        {
          "internalType": "address",
          "name": "from",
          "type": "address"
        },
        {
          "internalType": "address",
          "name": "to",
          "type": "address"
        },
        {
          "internalType": "uint256",
          "name": "tokenId",
          "type": "uint256"
        },
        {
          "internalType": "bytes",
          "name": "_data",
          "type": "bytes"
        }
      ],
      "name": "safeTransferFrom",
      "outputs": [],
      "stateMutability": "nonpayable",
      "type": "function"
    },
    {
      "inputs": [
        {
          "internalType": "address",
          "name": "operator",
          "type": "address"
        },
        {
          "internalType": "bool",
          "name": "approved",
          "type": "bool"
        }
      ],
      "name": "setApprovalForAll",
      "outputs": [],
      "stateMutability": "nonpayable",
      "type": "function"
    },
    {
      "inputs": [
        {
          "internalType": "bytes4",
          "name": "interfaceId",
          "type": "bytes4"
        }
      ],
      "name": "supportsInterface",
      "outputs": [
        {
          "internalType": "bool",
          "name": "",
          "type": "bool"
        }
      ],
      "stateMutability": "view",
      "type": "function"
    },
    {
      "inputs": [],
      "name": "symbol",
      "outputs": [
        {
          "internalType": "string",
          "name": "",
          "type": "string"
        }
      ],
      "stateMutability": "view",
      "type": "function"
    },
    {
      "inputs": [
        {
          "internalType": "uint256",
          "name": "tokenId",
          "type": "uint256"
        }
      ],
      "name": "tokenURI",
      "outputs": [
        {
          "internalType": "string",
          "name": "",
          "type": "string"
        }
      ],
      "stateMutability": "view",
      "type": "function"
    },
    {
      "inputs": [
        {
          "internalType": "address",
          "name": "from",
          "type": "address"
        },
        {
          "internalType": "address",
          "name": "to",
          "type": "address"
        },
        {
          "internalType": "uint256",
          "name": "tokenId",
          "type": "uint256"
        }
      ],
      "name": "transferFrom",
      "outputs": [],
      "stateMutability": "nonpayable",
      "type": "function"
    }
  ],
  "bytecode": "0x6080604052603260085560405180610100016040528060d3815260200162004ebf60d39139600990805190602001906200003b92919062000fd0565b5060405180608001604052806056815260200162004f9260569139600a90805190602001906200006d92919062000fd0565b506040518061026001604052806040518060400160405280600281526020017f474d00000000000000000000000000000000000000000000000000000000000081525081526020016040518060400160405280600281526020017f474e00000000000000000000000000000000000000000000000000000000000081525081526020016040518060400160405280600381526020017f536572000000000000000000000000000000000000000000000000000000000081525081526020016040518060400160405280600481526020017f4672656e0000000000000000000000000000000000000000000000000000000081525081526020016040518060400160405280600381526020017f474d49000000000000000000000000000000000000000000000000000000000081525081526020016040518060400160405280600581526020017f5741474d4900000000000000000000000000000000000000000000000000000081525081526020016040518060400160405280600481526020017f4e474d490000000000000000000000000000000000000000000000000000000081525081526020016040518060400160405280600281526020017f4f4700000000000000000000000000000000000000000000000000000000000081525081526020016040518060400160405280600481526020017f44594f520000000000000000000000000000000000000000000000000000000081525081526020016040518060400160405280600381526020017f4e4641000000000000000000000000000000000000000000000000000000000081525081526020016040518060400160405280600381526020017f48454e000000000000000000000000000000000000000000000000000000000081525081526020016040518060400160405280600381526020017f4c4647000000000000000000000000000000000000000000000000000000000081525081526020016040518060400160405280600381526020017f446564000000000000000000000000000000000000000000000000000000000081525081526020016040518060400160405280600381526020017f527567000000000000000000000000000000000000000000000000000000000081525081526020016040518060400160405280600581526020017f49594b594b00000000000000000000000000000000000000000000000000000081525081526020016040518060400160405280600981526020017f4d6561747370616365000000000000000000000000000000000000000000000081525081526020016040518060400160405280600681526020017f44656c697374000000000000000000000000000000000000000000000000000081525081526020016040518060400160405280600581526020017f416c70686100000000000000000000000000000000000000000000000000000081525081526020016040518060400160405280600381526020017f4f4d470000000000000000000000000000000000000000000000000000000000815250815250600b906013620004eb92919062001061565b50604051806101e001604052806040518060400160405280600981526020017f4d63446f6e616c6573000000000000000000000000000000000000000000000081525081526020016040518060400160405280600281526020017f4c4c00000000000000000000000000000000000000000000000000000000000081525081526020016040518060400160405280600281526020017f414200000000000000000000000000000000000000000000000000000000000081525081526020016040518060400160405280600d81526020017f47656e657261746976654172740000000000000000000000000000000000000081525081526020016040518060400160405280600381526020017f504650000000000000000000000000000000000000000000000000000000000081525081526020016040518060400160405280600981526020017f4c6f6f6b7352617265000000000000000000000000000000000000000000000081525081526020016040518060400160405280600781526020017f57656e4d6f6f6e0000000000000000000000000000000000000000000000000081525081526020016040518060400160405280600481526020017f417065640000000000000000000000000000000000000000000000000000000081525081526020016040518060400160405280600681526020017f55704f6e6c79000000000000000000000000000000000000000000000000000081525081526020016040518060400160405280600481526020017f4a5047730000000000000000000000000000000000000000000000000000000081525081526020016040518060400160405280600481526020017f4e6f6f620000000000000000000000000000000000000000000000000000000081525081526020016040518060400160405280600481526020017f506c65620000000000000000000000000000000000000000000000000000000081525081526020016040518060400160405280600881526020017f56616c68616c6c6100000000000000000000000000000000000000000000000081525081526020016040518060400160405280600e81526020017f536368656c6c696e67506f696e7400000000000000000000000000000000000081525081526020016040518060400160405280601281526020017f4974734d6f6e65794c61756e646572696e670000000000000000000000000000815250815250600c90600f6200087d929190620010c8565b506040518061018001604052806040518060400160405280600481526020017f464f4d4f0000000000000000000000000000000000000000000000000000000081525081526020016040518060400160405280600481526020017f434f50450000000000000000000000000000000000000000000000000000000081525081526020016040518060400160405280600381526020017f537a6e000000000000000000000000000000000000000000000000000000000081525081526020016040518060400160405280600381526020017f49524c000000000000000000000000000000000000000000000000000000000081525081526020016040518060400160405280600f81526020017f50726f6261626c794e6f7468696e67000000000000000000000000000000000081525081526020016040518060400160405280600c81526020017f546869734973546865576179000000000000000000000000000000000000000081525081526020016040518060400160405280600381526020017f466577000000000000000000000000000000000000000000000000000000000081525081526020016040518060400160405280600c81526020017f4761734f7247617357617273000000000000000000000000000000000000000081525081526020016040518060400160405280600a81526020017f446572697661746976650000000000000000000000000000000000000000000081525081526020016040518060400160405280600a81526020017f5365656d734c656769740000000000000000000000000000000000000000000081525081526020016040518060400160405280600781526020017f526f61646d61700000000000000000000000000000000000000000000000000081525081526020016040518060400160405280600381526020017f4c4f4c0000000000000000000000000000000000000000000000000000000000815250815250600d90600c62000b5e9291906200112f565b506040518061016001604052806040518060400160405280600781526020017f233143304335420000000000000000000000000000000000000000000000000081525081526020016040518060400160405280600781526020017f233038433241380000000000000000000000000000000000000000000000000081525081526020016040518060400160405280600581526020017f626c61636b00000000000000000000000000000000000000000000000000000081525081526020016040518060400160405280600781526020017f233344324338440000000000000000000000000000000000000000000000000081525081526020016040518060400160405280600781526020017f233931364242460000000000000000000000000000000000000000000000000081525081526020016040518060400160405280600781526020017f234239313634360000000000000000000000000000000000000000000000000081525081526020016040518060400160405280600781526020017f233130353635320000000000000000000000000000000000000000000000000081525081526020016040518060400160405280600781526020017f234446443843410000000000000000000000000000000000000000000000000081525081526020016040518060400160405280600781526020017f234646353135310000000000000000000000000000000000000000000000000081525081526020016040518060400160405280600781526020017f234646353135310000000000000000000000000000000000000000000000000081525081526020016040518060400160405280600781526020017f2334394646303000000000000000000000000000000000000000000000000000815250815250600e90600b62000e0492919062001196565b5034801562000e1257600080fd5b506040518060400160405280600f81526020017f4e4654205465726d696e6f6c6f677900000000000000000000000000000000008152506040518060400160405280600481526020017f4e46545400000000000000000000000000000000000000000000000000000000815250816000908051906020019062000e9792919062000fd0565b50806001908051906020019062000eb092919062000fd0565b50505062000efe6040518060400160405280601e81526020017f54686973206973206d79204e465420636f6e74726163742e20576f616821000081525062000f0460201b6200140d1760201c565b620013b7565b62000fa48160405160240162000f1b9190620012cb565b6040516020818303038152906040527f41304fac000000000000000000000000000000000000000000000000000000007bffffffffffffffffffffffffffffffffffffffffffffffffffffffff19166020820180517bffffffffffffffffffffffffffffffffffffffffffffffffffffffff838183161783525050505062000fa760201b60201c565b50565b60008151905060006a636f6e736f6c652e6c6f679050602083016000808483855afa5050505050565b82805462000fde9062001341565b90600052602060002090601f0160209004810192826200100257600085556200104e565b82601f106200101d57805160ff19168380011785556200104e565b828001600101855582156200104e579182015b828111156200104d57825182559160200191906001019062001030565b5b5090506200105d9190620011fd565b5090565b828054828255906000526020600020908101928215620010b5579160200282015b82811115620010b4578251829080519060200190620010a392919062000fd0565b509160200191906001019062001082565b5b509050620010c491906200121c565b5090565b8280548282559060005260206000209081019282156200111c579160200282015b828111156200111b5782518290805190602001906200110a92919062000fd0565b5091602001919060010190620010e9565b5b5090506200112b91906200121c565b5090565b82805482825590600052602060002090810192821562001183579160200282015b82811115620011825782518290805190602001906200117192919062000fd0565b509160200191906001019062001150565b5b5090506200119291906200121c565b5090565b828054828255906000526020600020908101928215620011ea579160200282015b82811115620011e9578251829080519060200190620011d892919062000fd0565b5091602001919060010190620011b7565b5b509050620011f991906200121c565b5090565b5b8082111562001218576000816000905550600101620011fe565b5090565b5b8082111562001240576000818162001236919062001244565b506001016200121d565b5090565b508054620012529062001341565b6000825580601f1062001266575062001287565b601f016020900490600052602060002090810190620012869190620011fd565b5b50565b60006200129782620012ef565b620012a38185620012fa565b9350620012b58185602086016200130b565b620012c081620013a6565b840191505092915050565b60006020820190508181036000830152620012e781846200128a565b905092915050565b600081519050919050565b600082825260208201905092915050565b60005b838110156200132b5780820151818401526020810190506200130e565b838111156200133b576000848401525b50505050565b600060028204905060018216806200135a57607f821691505b6020821081141562001371576200137062001377565b5b50919050565b7f4e487b7100000000000000000000000000000000000000000000000000000000600052602260045260246000fd5b6000601f19601f8301169050919050565b613af880620013c76000396000f3fe608060405234801561001057600080fd5b506004361061012c5760003560e01c806370a08231116100ad578063c575757a11610071578063c575757a14610367578063c87b56dd14610397578063d5abeb01146103c7578063de9d132f146103e5578063e985e9c5146103ef5761012c565b806370a08231146102b157806395d89b41146102e1578063a22cb465146102ff578063b187301f1461031b578063b88d4fde1461034b5761012c565b806323b872dd116100f457806323b872dd146101e95780632de38d681461020557806342842e0e14610235578063514dc8c6146102515780636352211e146102815761012c565b806301ffc9a714610131578063060475901461016157806306fdde031461017f578063081812fc1461019d578063095ea7b3146101cd575b600080fd5b61014b600480360381019061014691906126a0565b61041f565b604051610158919061336e565b60405180910390f35b610169610501565b60405161017691906135e9565b60405180910390f35b610187610512565b6040516101949190613389565b60405180910390f35b6101b760048036038101906101b291906126f2565b6105a4565b6040516101c491906132de565b60405180910390f35b6101e760048036038101906101e29190612664565b610629565b005b61020360048036038101906101fe919061255e565b610741565b005b61021f600480360381019061021a91906126f2565b6107a1565b60405161022c9190613389565b60405180910390f35b61024f600480360381019061024a919061255e565b6108bf565b005b61026b600480360381019061026691906126f2565b6108df565b6040516102789190613389565b60405180910390f35b61029b600480360381019061029691906126f2565b6109fd565b6040516102a891906132de565b60405180910390f35b6102cb60048036038101906102c691906124f9565b610aaf565b6040516102d891906135e9565b60405180910390f35b6102e9610b67565b6040516102f69190613389565b60405180910390f35b61031960048036038101906103149190612628565b610bf9565b005b610335600480360381019061033091906126f2565b610d7a565b6040516103429190613389565b60405180910390f35b610365600480360381019061036091906125ad565b610e98565b005b610381600480360381019061037c91906126f2565b610efa565b60405161038e9190613389565b60405180910390f35b6103b160048036038101906103ac91906126f2565b611018565b6040516103be9190613389565b60405180910390f35b6103cf61116a565b6040516103dc91906135e9565b60405180910390f35b6103ed611170565b005b61040960048036038101906104049190612522565b611379565b604051610416919061336e565b60405180910390f35b60007f80ac58cd000000000000000000000000000000000000000000000000000000007bffffffffffffffffffffffffffffffffffffffffffffffffffffffff1916827bffffffffffffffffffffffffffffffffffffffffffffffffffffffff191614806104ea57507f5b5e139f000000000000000000000000000000000000000000000000000000007bffffffffffffffffffffffffffffffffffffffffffffffffffffffff1916827bffffffffffffffffffffffffffffffffffffffffffffffffffffffff1916145b806104fa57506104f9826114a6565b5b9050919050565b600061050d6007611510565b905090565b60606000805461052190613888565b80601f016020809104026020016040519081016040528092919081815260200182805461054d90613888565b801561059a5780601f1061056f5761010080835404028352916020019161059a565b820191906000526020600020905b81548152906001019060200180831161057d57829003601f168201915b5050505050905090565b60006105af8261151e565b6105ee576040517f08c379a00000000000000000000000000000000000000000000000000000000081526004016105e590613549565b60405180910390fd5b6004600083815260200190815260200160002060009054906101000a900473ffffffffffffffffffffffffffffffffffffffff169050919050565b6000610634826109fd565b90508073ffffffffffffffffffffffffffffffffffffffff168373ffffffffffffffffffffffffffffffffffffffff1614156106a5576040517f08c379a000000000000000000000000000000000000000000000000000000000815260040161069c906135a9565b60405180910390fd5b8073ffffffffffffffffffffffffffffffffffffffff166106c461158a565b73ffffffffffffffffffffffffffffffffffffffff1614806106f357506106f2816106ed61158a565b611379565b5b610732576040517f08c379a000000000000000000000000000000000000000000000000000000000815260040161072990613489565b60405180910390fd5b61073c8383611592565b505050565b61075261074c61158a565b8261164b565b610791576040517f08c379a0000000000000000000000000000000000000000000000000000000008152600401610788906135c9565b60405180910390fd5b61079c838383611729565b505050565b606060006107d56107b184611985565b6040516020016107c19190613278565b604051602081830303815290604052611b32565b9050600b80549050816107e89190613903565b9050600b8181548110610824577f4e487b7100000000000000000000000000000000000000000000000000000000600052603260045260246000fd5b90600052602060002001805461083990613888565b80601f016020809104026020016040519081016040528092919081815260200182805461086590613888565b80156108b25780601f10610887576101008083540402835291602001916108b2565b820191906000526020600020905b81548152906001019060200180831161089557829003601f168201915b5050505050915050919050565b6108da83838360405180602001604052806000815250610e98565b505050565b606060006109136108ef84611985565b6040516020016108ff91906132bc565b604051602081830303815290604052611b32565b9050600e80549050816109269190613903565b9050600e8181548110610962577f4e487b7100000000000000000000000000000000000000000000000000000000600052603260045260246000fd5b90600052602060002001805461097790613888565b80601f01602080910402602001604051908101604052809291908181526020018280546109a390613888565b80156109f05780601f106109c5576101008083540402835291602001916109f0565b820191906000526020600020905b8154815290600101906020018083116109d357829003601f168201915b5050505050915050919050565b6000806002600084815260200190815260200160002060009054906101000a900473ffffffffffffffffffffffffffffffffffffffff169050600073ffffffffffffffffffffffffffffffffffffffff168173ffffffffffffffffffffffffffffffffffffffff161415610aa6576040517f08c379a0000000000000000000000000000000000000000000000000000000008152600401610a9d906134c9565b60405180910390fd5b80915050919050565b60008073ffffffffffffffffffffffffffffffffffffffff168273ffffffffffffffffffffffffffffffffffffffff161415610b20576040517f08c379a0000000000000000000000000000000000000000000000000000000008152600401610b17906134a9565b60405180910390fd5b600360008373ffffffffffffffffffffffffffffffffffffffff1673ffffffffffffffffffffffffffffffffffffffff168152602001908152602001600020549050919050565b606060018054610b7690613888565b80601f0160208091040260200160405190810160405280929190818152602001828054610ba290613888565b8015610bef5780601f10610bc457610100808354040283529160200191610bef565b820191906000526020600020905b815481529060010190602001808311610bd257829003601f168201915b5050505050905090565b610c0161158a565b73ffffffffffffffffffffffffffffffffffffffff168273ffffffffffffffffffffffffffffffffffffffff161415610c6f576040517f08c379a0000000000000000000000000000000000000000000000000000000008152600401610c6690613449565b60405180910390fd5b8060056000610c7c61158a565b73ffffffffffffffffffffffffffffffffffffffff1673ffffffffffffffffffffffffffffffffffffffff16815260200190815260200160002060008473ffffffffffffffffffffffffffffffffffffffff1673ffffffffffffffffffffffffffffffffffffffff16815260200190815260200160002060006101000a81548160ff0219169083151502179055508173ffffffffffffffffffffffffffffffffffffffff16610d2961158a565b73ffffffffffffffffffffffffffffffffffffffff167f17307eab39ab6107e8899845ad3d59bd9653f200f220920489ca2b5937696c3183604051610d6e919061336e565b60405180910390a35050565b60606000610dae610d8a84611985565b604051602001610d9a9190613211565b604051602081830303815290604052611b32565b9050600c8054905081610dc19190613903565b9050600c8181548110610dfd577f4e487b7100000000000000000000000000000000000000000000000000000000600052603260045260246000fd5b906000526020600020018054610e1290613888565b80601f0160208091040260200160405190810160405280929190818152602001828054610e3e90613888565b8015610e8b5780601f10610e6057610100808354040283529160200191610e8b565b820191906000526020600020905b815481529060010190602001808311610e6e57829003601f168201915b5050505050915050919050565b610ea9610ea361158a565b8361164b565b610ee8576040517f08c379a0000000000000000000000000000000000000000000000000000000008152600401610edf906135c9565b60405180910390fd5b610ef484848484611b65565b50505050565b60606000610f2e610f0a84611985565b604051602001610f1a91906131ef565b604051602081830303815290604052611b32565b9050600d8054905081610f419190613903565b9050600d8181548110610f7d577f4e487b7100000000000000000000000000000000000000000000000000000000600052603260045260246000fd5b906000526020600020018054610f9290613888565b80601f0160208091040260200160405190810160405280929190818152602001828054610fbe90613888565b801561100b5780601f10610fe05761010080835404028352916020019161100b565b820191906000526020600020905b815481529060010190602001808311610fee57829003601f168201915b5050505050915050919050565b60606110238261151e565b611062576040517f08c379a000000000000000000000000000000000000000000000000000000000815260040161105990613529565b60405180910390fd5b600060066000848152602001908152602001600020805461108290613888565b80601f01602080910402602001604051908101604052809291908181526020018280546110ae90613888565b80156110fb5780601f106110d0576101008083540402835291602001916110fb565b820191906000526020600020905b8154815290600101906020018083116110de57829003601f168201915b50505050509050600061110c611bc1565b9050600081511415611122578192505050611165565b60008251111561115757808260405160200161113f92919061313b565b60405160208183030381529060405292505050611165565b61116084611bd8565b925050505b919050565b60085481565b600061117c6007611510565b905060085481111561118d57600080fd5b6000611198826107a1565b905060006111a583610d7a565b905060006111b284610efa565b905060008383836040516020016111cb9392919061315f565b604051602081830303815290604052905060006111e7866108df565b90506000600982600a8560405160200161120494939291906131a6565b604051602081830303815290604052905060006112498461122484611c7f565b604051602001611235929190613233565b604051602081830303815290604052611c7f565b905060008160405160200161125e919061329a565b60405160208183030381529060405290506112ad6040518060400160405280601581526020017f0a2d2d2d2d2d2d2d2d2d2d2d2d2d2d2d2d2d2d2d2d000000000000000000000081525061140d565b6112b68161140d565b6112f46040518060400160405280601581526020017f2d2d2d2d2d2d2d2d2d2d2d2d2d2d2d2d2d2d2d2d0a000000000000000000000081525061140d565b6112fe338a611e3d565b6113088982611e5b565b6113126007611ecf565b611335604051806060016040528060258152602001613a5e602591398a33611ee5565b7febb98688741ffa4c7589bf325de30cf7becb63de567842e1ccdb6cb949fdc82c338a604051611366929190613345565b60405180910390a1505050505050505050565b6000600560008473ffffffffffffffffffffffffffffffffffffffff1673ffffffffffffffffffffffffffffffffffffffff16815260200190815260200160002060008373ffffffffffffffffffffffffffffffffffffffff1673ffffffffffffffffffffffffffffffffffffffff16815260200190815260200160002060009054906101000a900460ff16905092915050565b6114a3816040516024016114219190613389565b6040516020818303038152906040527f41304fac000000000000000000000000000000000000000000000000000000007bffffffffffffffffffffffffffffffffffffffffffffffffffffffff19166020820180517bffffffffffffffffffffffffffffffffffffffffffffffffffffffff8381831617835250505050611f84565b50565b60007f01ffc9a7000000000000000000000000000000000000000000000000000000007bffffffffffffffffffffffffffffffffffffffffffffffffffffffff1916827bffffffffffffffffffffffffffffffffffffffffffffffffffffffff1916149050919050565b600081600001549050919050565b60008073ffffffffffffffffffffffffffffffffffffffff166002600084815260200190815260200160002060009054906101000a900473ffffffffffffffffffffffffffffffffffffffff1673ffffffffffffffffffffffffffffffffffffffff1614159050919050565b600033905090565b816004600083815260200190815260200160002060006101000a81548173ffffffffffffffffffffffffffffffffffffffff021916908373ffffffffffffffffffffffffffffffffffffffff160217905550808273ffffffffffffffffffffffffffffffffffffffff16611605836109fd565b73ffffffffffffffffffffffffffffffffffffffff167f8c5be1e5ebec7d5bd14f71427d1e84f3dd0314c0f7b2291e5b200ac8c7c3b92560405160405180910390a45050565b60006116568261151e565b611695576040517f08c379a000000000000000000000000000000000000000000000000000000000815260040161168c90613469565b60405180910390fd5b60006116a0836109fd565b90508073ffffffffffffffffffffffffffffffffffffffff168473ffffffffffffffffffffffffffffffffffffffff16148061170f57508373ffffffffffffffffffffffffffffffffffffffff166116f7846105a4565b73ffffffffffffffffffffffffffffffffffffffff16145b80611720575061171f8185611379565b5b91505092915050565b8273ffffffffffffffffffffffffffffffffffffffff16611749826109fd565b73ffffffffffffffffffffffffffffffffffffffff161461179f576040517f08c379a000000000000000000000000000000000000000000000000000000000815260040161179690613569565b60405180910390fd5b600073ffffffffffffffffffffffffffffffffffffffff168273ffffffffffffffffffffffffffffffffffffffff16141561180f576040517f08c379a000000000000000000000000000000000000000000000000000000000815260040161180690613429565b60405180910390fd5b61181a838383611fad565b611825600082611592565b6001600360008573ffffffffffffffffffffffffffffffffffffffff1673ffffffffffffffffffffffffffffffffffffffff1681526020019081526020016000206000828254611875919061379e565b925050819055506001600360008473ffffffffffffffffffffffffffffffffffffffff1673ffffffffffffffffffffffffffffffffffffffff16815260200190815260200160002060008282546118cc91906136bd565b92505081905550816002600083815260200190815260200160002060006101000a81548173ffffffffffffffffffffffffffffffffffffffff021916908373ffffffffffffffffffffffffffffffffffffffff160217905550808273ffffffffffffffffffffffffffffffffffffffff168473ffffffffffffffffffffffffffffffffffffffff167fddf252ad1be2c89b69c2b068fc378daa952ba7f163c4a11628f55a4df523b3ef60405160405180910390a4505050565b606060008214156119cd576040518060400160405280600181526020017f30000000000000000000000000000000000000000000000000000000000000008152509050611b2d565b600082905060005b600082146119ff5780806119e8906138ba565b915050600a826119f89190613713565b91506119d5565b60008167ffffffffffffffff811115611a41577f4e487b7100000000000000000000000000000000000000000000000000000000600052604160045260246000fd5b6040519080825280601f01601f191660200182016040528015611a735781602001600182028036833780820191505090505b5090505b60008514611b2657600182611a8c919061379e565b9150600a85611a9b9190613903565b6030611aa791906136bd565b60f81b818381518110611ae3577f4e487b7100000000000000000000000000000000000000000000000000000000600052603260045260246000fd5b60200101907effffffffffffffffffffffffffffffffffffffffffffffffffffffffffffff1916908160001a905350600a85611b1f9190613713565b9450611a77565b8093505050505b919050565b600081604051602001611b459190613124565b6040516020818303038152906040528051906020012060001c9050919050565b611b70848484611729565b611b7c84848484611fb2565b611bbb576040517f08c379a0000000000000000000000000000000000000000000000000000000008152600401611bb2906133e9565b60405180910390fd5b50505050565b606060405180602001604052806000815250905090565b6060611be38261151e565b611c22576040517f08c379a0000000000000000000000000000000000000000000000000000000008152600401611c1990613589565b60405180910390fd5b6000611c2c611bc1565b90506000815111611c4c5760405180602001604052806000815250611c77565b80611c5684611985565b604051602001611c6792919061313b565b6040516020818303038152906040525b915050919050565b60606000825190506000811415611ca85760405180602001604052806000815250915050611e38565b60006003600283611cb991906136bd565b611cc39190613713565b6004611ccf9190613744565b90506000602082611ce091906136bd565b67ffffffffffffffff811115611d1f577f4e487b7100000000000000000000000000000000000000000000000000000000600052604160045260246000fd5b6040519080825280601f01601f191660200182016040528015611d515781602001600182028036833780820191505090505b5090506000604051806060016040528060408152602001613a83604091399050600181016020830160005b86811015611df55760038101905062ffffff818a015116603f8160121c168401518060081b905060ff603f83600c1c1686015116810190508060081b905060ff603f8360061c1686015116810190508060081b905060ff603f831686015116810190508060e01b90508084526004840193505050611d7c565b506003860660018114611e0f5760028114611e1f57611e2a565b613d3d60f01b6002830352611e2a565b603d60f81b60018303525b508484525050819450505050505b919050565b611e57828260405180602001604052806000815250612149565b5050565b611e648261151e565b611ea3576040517f08c379a0000000000000000000000000000000000000000000000000000000008152600401611e9a906134e9565b60405180910390fd5b80600660008481526020019081526020016000209080519060200190611eca929190612385565b505050565b6001816000016000828254019250508190555050565b611f7f838383604051602401611efd939291906133ab565b6040516020818303038152906040527fe3849f79000000000000000000000000000000000000000000000000000000007bffffffffffffffffffffffffffffffffffffffffffffffffffffffff19166020820180517bffffffffffffffffffffffffffffffffffffffffffffffffffffffff8381831617835250505050611f84565b505050565b60008151905060006a636f6e736f6c652e6c6f679050602083016000808483855afa5050505050565b505050565b6000611fd38473ffffffffffffffffffffffffffffffffffffffff166121a4565b1561213c578373ffffffffffffffffffffffffffffffffffffffff1663150b7a02611ffc61158a565b8786866040518563ffffffff1660e01b815260040161201e94939291906132f9565b602060405180830381600087803b15801561203857600080fd5b505af192505050801561206957506040513d601f19601f8201168201806040525081019061206691906126c9565b60015b6120ec573d8060008114612099576040519150601f19603f3d011682016040523d82523d6000602084013e61209e565b606091505b506000815114156120e4576040517f08c379a00000000000000000000000000000000000000000000000000000000081526004016120db906133e9565b60405180910390fd5b805181602001fd5b63150b7a0260e01b7bffffffffffffffffffffffffffffffffffffffffffffffffffffffff1916817bffffffffffffffffffffffffffffffffffffffffffffffffffffffff191614915050612141565b600190505b949350505050565b61215383836121b7565b6121606000848484611fb2565b61219f576040517f08c379a0000000000000000000000000000000000000000000000000000000008152600401612196906133e9565b60405180910390fd5b505050565b600080823b905060008111915050919050565b600073ffffffffffffffffffffffffffffffffffffffff168273ffffffffffffffffffffffffffffffffffffffff161415612227576040517f08c379a000000000000000000000000000000000000000000000000000000000815260040161221e90613509565b60405180910390fd5b6122308161151e565b15612270576040517f08c379a000000000000000000000000000000000000000000000000000000000815260040161226790613409565b60405180910390fd5b61227c60008383611fad565b6001600360008473ffffffffffffffffffffffffffffffffffffffff1673ffffffffffffffffffffffffffffffffffffffff16815260200190815260200160002060008282546122cc91906136bd565b92505081905550816002600083815260200190815260200160002060006101000a81548173ffffffffffffffffffffffffffffffffffffffff021916908373ffffffffffffffffffffffffffffffffffffffff160217905550808273ffffffffffffffffffffffffffffffffffffffff16600073ffffffffffffffffffffffffffffffffffffffff167fddf252ad1be2c89b69c2b068fc378daa952ba7f163c4a11628f55a4df523b3ef60405160405180910390a45050565b82805461239190613888565b90600052602060002090601f0160209004810192826123b357600085556123fa565b82601f106123cc57805160ff19168380011785556123fa565b828001600101855582156123fa579182015b828111156123f95782518255916020019190600101906123de565b5b509050612407919061240b565b5090565b5b8082111561242457600081600090555060010161240c565b5090565b600061243b61243684613635565b613604565b90508281526020810184848401111561245357600080fd5b61245e848285613846565b509392505050565b60008135905061247581613a01565b92915050565b60008135905061248a81613a18565b92915050565b60008135905061249f81613a2f565b92915050565b6000815190506124b481613a2f565b92915050565b600082601f8301126124cb57600080fd5b81356124db848260208601612428565b91505092915050565b6000813590506124f381613a46565b92915050565b60006020828403121561250b57600080fd5b600061251984828501612466565b91505092915050565b6000806040838503121561253557600080fd5b600061254385828601612466565b925050602061255485828601612466565b9150509250929050565b60008060006060848603121561257357600080fd5b600061258186828701612466565b935050602061259286828701612466565b92505060406125a3868287016124e4565b9150509250925092565b600080600080608085870312156125c357600080fd5b60006125d187828801612466565b94505060206125e287828801612466565b93505060406125f3878288016124e4565b925050606085013567ffffffffffffffff81111561261057600080fd5b61261c878288016124ba565b91505092959194509250565b6000806040838503121561263b57600080fd5b600061264985828601612466565b925050602061265a8582860161247b565b9150509250929050565b6000806040838503121561267757600080fd5b600061268585828601612466565b9250506020612696858286016124e4565b9150509250929050565b6000602082840312156126b257600080fd5b60006126c084828501612490565b91505092915050565b6000602082840312156126db57600080fd5b60006126e9848285016124a5565b91505092915050565b60006020828403121561270457600080fd5b6000612712848285016124e4565b91505092915050565b612724816137d2565b82525050565b612733816137e4565b82525050565b60006127448261367a565b61274e8185613690565b935061275e818560208601613855565b612767816139f0565b840191505092915050565b600061277d82613685565b61278781856136a1565b9350612797818560208601613855565b6127a0816139f0565b840191505092915050565b60006127b682613685565b6127c081856136b2565b93506127d0818560208601613855565b80840191505092915050565b600081546127e981613888565b6127f381866136b2565b9450600182166000811461280e576001811461281f57612852565b60ff19831686528186019350612852565b61282885613665565b60005b8381101561284a5781548189015260018201915060208101905061282b565b838801955050505b50505092915050565b60006128686032836136a1565b91507f4552433732313a207472616e7366657220746f206e6f6e20455243373231526560008301527f63656976657220696d706c656d656e74657200000000000000000000000000006020830152604082019050919050565b60006128ce601c836136a1565b91507f4552433732313a20746f6b656e20616c7265616479206d696e746564000000006000830152602082019050919050565b600061290e600a836136b2565b91507f54484952445f574f5244000000000000000000000000000000000000000000006000830152600a82019050919050565b600061294e6024836136a1565b91507f4552433732313a207472616e7366657220746f20746865207a65726f2061646460008301527f72657373000000000000000000000000000000000000000000000000000000006020830152604082019050919050565b60006129b46019836136a1565b91507f4552433732313a20617070726f766520746f2063616c6c6572000000000000006000830152602082019050919050565b60006129f4600b836136b2565b91507f5345434f4e445f574f52440000000000000000000000000000000000000000006000830152600b82019050919050565b6000612a34602c836136a1565b91507f4552433732313a206f70657261746f7220717565727920666f72206e6f6e657860008301527f697374656e7420746f6b656e00000000000000000000000000000000000000006020830152604082019050919050565b6000612a9a600d836136b2565b91507f3c2f746578743e3c2f7376673e000000000000000000000000000000000000006000830152600d82019050919050565b6000612ada6038836136a1565b91507f4552433732313a20617070726f76652063616c6c6572206973206e6f74206f7760008301527f6e6572206e6f7220617070726f76656420666f7220616c6c00000000000000006020830152604082019050919050565b6000612b40602a836136a1565b91507f4552433732313a2062616c616e636520717565727920666f7220746865207a6560008301527f726f2061646472657373000000000000000000000000000000000000000000006020830152604082019050919050565b6000612ba66029836136a1565b91507f4552433732313a206f776e657220717565727920666f72206e6f6e657869737460008301527f656e7420746f6b656e00000000000000000000000000000000000000000000006020830152604082019050919050565b6000612c0c602e836136a1565b91507f45524337323155524953746f726167653a2055524920736574206f66206e6f6e60008301527f6578697374656e7420746f6b656e0000000000000000000000000000000000006020830152604082019050919050565b6000612c72605a836136b2565b91507f222c20226465736372697074696f6e223a2022497420676f6f6420746f206b6e60008301527f6f77204e4654205465726d696e6f6c6f67792e222c2022696d616765223a202260208301527f646174613a696d6167652f7376672b786d6c3b6261736536342c0000000000006040830152605a82019050919050565b6000612cfe6002836136b2565b91507f227d0000000000000000000000000000000000000000000000000000000000006000830152600282019050919050565b6000612d3e6020836136a1565b91507f4552433732313a206d696e7420746f20746865207a65726f20616464726573736000830152602082019050919050565b6000612d7e6031836136a1565b91507f45524337323155524953746f726167653a2055524920717565727920666f722060008301527f6e6f6e6578697374656e7420746f6b656e0000000000000000000000000000006020830152604082019050919050565b6000612de4602c836136a1565b91507f4552433732313a20617070726f76656420717565727920666f72206e6f6e657860008301527f697374656e7420746f6b656e00000000000000000000000000000000000000006020830152604082019050919050565b6000612e4a6029836136a1565b91507f4552433732313a207472616e73666572206f6620746f6b656e2074686174206960008301527f73206e6f74206f776e00000000000000000000000000000000000000000000006020830152604082019050919050565b6000612eb0602f836136a1565b91507f4552433732314d657461646174613a2055524920717565727920666f72206e6f60008301527f6e6578697374656e7420746f6b656e00000000000000000000000000000000006020830152604082019050919050565b6000612f16600a836136b2565b91507f7b226e616d65223a2022000000000000000000000000000000000000000000006000830152600a82019050919050565b6000612f566021836136a1565b91507f4552433732313a20617070726f76616c20746f2063757272656e74206f776e6560008301527f72000000000000000000000000000000000000000000000000000000000000006020830152604082019050919050565b6000612fbc600a836136b2565b91507f46495253545f574f5244000000000000000000000000000000000000000000006000830152600a82019050919050565b6000612ffc601d836136b2565b91507f646174613a6170706c69636174696f6e2f6a736f6e3b6261736536342c0000006000830152601d82019050919050565b600061303c6031836136a1565b91507f4552433732313a207472616e736665722063616c6c6572206973206e6f74206f60008301527f776e6572206e6f7220617070726f7665640000000000000000000000000000006020830152604082019050919050565b60006130a26005836136b2565b91507f434f4c4f520000000000000000000000000000000000000000000000000000006000830152600582019050919050565b60006130e26001836136b2565b91507f7c000000000000000000000000000000000000000000000000000000000000006000830152600182019050919050565b61311e8161383c565b82525050565b600061313082846127ab565b915081905092915050565b600061314782856127ab565b915061315382846127ab565b91508190509392505050565b600061316b82866127ab565b9150613176826130d5565b915061318282856127ab565b915061318d826130d5565b915061319982846127ab565b9150819050949350505050565b60006131b282876127dc565b91506131be82866127ab565b91506131ca82856127dc565b91506131d682846127ab565b91506131e182612a8d565b915081905095945050505050565b60006131fa82612901565b915061320682846127ab565b915081905092915050565b600061321c826129e7565b915061322882846127ab565b915081905092915050565b600061323e82612f09565b915061324a82856127ab565b915061325582612c65565b915061326182846127ab565b915061326c82612cf1565b91508190509392505050565b600061328382612faf565b915061328f82846127ab565b915081905092915050565b60006132a582612fef565b91506132b182846127ab565b915081905092915050565b60006132c782613095565b91506132d382846127ab565b915081905092915050565b60006020820190506132f3600083018461271b565b92915050565b600060808201905061330e600083018761271b565b61331b602083018661271b565b6133286040830185613115565b818103606083015261333a8184612739565b905095945050505050565b600060408201905061335a600083018561271b565b6133676020830184613115565b9392505050565b6000602082019050613383600083018461272a565b92915050565b600060208201905081810360008301526133a38184612772565b905092915050565b600060608201905081810360008301526133c58186612772565b90506133d46020830185613115565b6133e1604083018461271b565b949350505050565b600060208201905081810360008301526134028161285b565b9050919050565b60006020820190508181036000830152613422816128c1565b9050919050565b6000602082019050818103600083015261344281612941565b9050919050565b60006020820190508181036000830152613462816129a7565b9050919050565b6000602082019050818103600083015261348281612a27565b9050919050565b600060208201905081810360008301526134a281612acd565b9050919050565b600060208201905081810360008301526134c281612b33565b9050919050565b600060208201905081810360008301526134e281612b99565b9050919050565b6000602082019050818103600083015261350281612bff565b9050919050565b6000602082019050818103600083015261352281612d31565b9050919050565b6000602082019050818103600083015261354281612d71565b9050919050565b6000602082019050818103600083015261356281612dd7565b9050919050565b6000602082019050818103600083015261358281612e3d565b9050919050565b600060208201905081810360008301526135a281612ea3565b9050919050565b600060208201905081810360008301526135c281612f49565b9050919050565b600060208201905081810360008301526135e28161302f565b9050919050565b60006020820190506135fe6000830184613115565b92915050565b6000604051905081810181811067ffffffffffffffff8211171561362b5761362a6139c1565b5b8060405250919050565b600067ffffffffffffffff8211156136505761364f6139c1565b5b601f19601f8301169050602081019050919050565b60008190508160005260206000209050919050565b600081519050919050565b600081519050919050565b600082825260208201905092915050565b600082825260208201905092915050565b600081905092915050565b60006136c88261383c565b91506136d38361383c565b9250827fffffffffffffffffffffffffffffffffffffffffffffffffffffffffffffffff0382111561370857613707613934565b5b828201905092915050565b600061371e8261383c565b91506137298361383c565b92508261373957613738613963565b5b828204905092915050565b600061374f8261383c565b915061375a8361383c565b9250817fffffffffffffffffffffffffffffffffffffffffffffffffffffffffffffffff048311821515161561379357613792613934565b5b828202905092915050565b60006137a98261383c565b91506137b48361383c565b9250828210156137c7576137c6613934565b5b828203905092915050565b60006137dd8261381c565b9050919050565b60008115159050919050565b60007fffffffff0000000000000000000000000000000000000000000000000000000082169050919050565b600073ffffffffffffffffffffffffffffffffffffffff82169050919050565b6000819050919050565b82818337600083830152505050565b60005b83811015613873578082015181840152602081019050613858565b83811115613882576000848401525b50505050565b600060028204905060018216806138a057607f821691505b602082108114156138b4576138b3613992565b5b50919050565b60006138c58261383c565b91507fffffffffffffffffffffffffffffffffffffffffffffffffffffffffffffffff8214156138f8576138f7613934565b5b600182019050919050565b600061390e8261383c565b91506139198361383c565b92508261392957613928613963565b5b828206905092915050565b7f4e487b7100000000000000000000000000000000000000000000000000000000600052601160045260246000fd5b7f4e487b7100000000000000000000000000000000000000000000000000000000600052601260045260246000fd5b7f4e487b7100000000000000000000000000000000000000000000000000000000600052602260045260246000fd5b7f4e487b7100000000000000000000000000000000000000000000000000000000600052604160045260246000fd5b6000601f19601f8301169050919050565b613a0a816137d2565b8114613a1557600080fd5b50565b613a21816137e4565b8114613a2c57600080fd5b50565b613a38816137f0565b8114613a4357600080fd5b50565b613a4f8161383c565b8114613a5a57600080fd5b5056fe416e204e465420772f20494420257320686173206265656e206d696e74656420746f2025734142434445464748494a4b4c4d4e4f505152535455565758595a6162636465666768696a6b6c6d6e6f707172737475767778797a303132333435363738392b2fa26469706673582212205e6cd1901fea8c5a633cbdb15ba340d07f5174a0ad2b01ff5fe7cb6605735fac64736f6c634300080000333c73766720786d6c6e733d27687474703a2f2f7777772e77332e6f72672f323030302f73766727207072657365727665417370656374526174696f3d27784d696e594d696e206d656574272076696577426f783d273020302033353020333530273e3c7374796c653e2e62617365207b2066696c6c3a2077686974653b20666f6e742d66616d696c793a2073657269663b20666f6e742d73697a653a20323470783b207d3c2f7374796c653e3c726563742077696474683d273130302527206865696768743d2731303025272066696c6c3d27272f3e3c7465787420783d273530252720793d273530252720636c6173733d27626173652720646f6d696e616e742d626173656c696e653d276d6964646c652720746578742d616e63686f723d276d6964646c65273e",
  "linkReferences": {},
  "deployedLinkReferences": {}
}