{
    "_format": "hh-sol-artifact-1",
    "contractName": "MyEpicNFT",
    "sourceName": "contracts/MyEpicNFT.sol",
    "abi": [
        {
            "inputs": [],
            "stateMutability": "nonpayable",
            "type": "constructor"
        },
        {
            "anonymous": false,
            "inputs": [
                {
                    "indexed": true,
                    "internalType": "address",
                    "name": "owner",
                    "type": "address"
                },
                {
                    "indexed": true,
                    "internalType": "address",
                    "name": "approved",
                    "type": "address"
                },
                {
                    "indexed": true,
                    "internalType": "uint256",
                    "name": "tokenId",
                    "type": "uint256"
                }
            ],
            "name": "Approval",
            "type": "event"
        },
        {
            "anonymous": false,
            "inputs": [
                {
                    "indexed": true,
                    "internalType": "address",
                    "name": "owner",
                    "type": "address"
                },
                {
                    "indexed": true,
                    "internalType": "address",
                    "name": "operator",
                    "type": "address"
                },
                {
                    "indexed": false,
                    "internalType": "bool",
                    "name": "approved",
                    "type": "bool"
                }
            ],
            "name": "ApprovalForAll",
            "type": "event"
        },
        {
            "anonymous": false,
            "inputs": [
                {
                    "indexed": false,
                    "internalType": "address",
                    "name": "sender",
                    "type": "address"
                },
                {
                    "indexed": false,
                    "internalType": "uint256",
                    "name": "tokenId",
                    "type": "uint256"
                }
            ],
            "name": "NewEpicNFTMinted",
            "type": "event"
        },
        {
            "anonymous": false,
            "inputs": [
                {
                    "indexed": true,
                    "internalType": "address",
                    "name": "from",
                    "type": "address"
                },
                {
                    "indexed": true,
                    "internalType": "address",
                    "name": "to",
                    "type": "address"
                },
                {
                    "indexed": true,
                    "internalType": "uint256",
                    "name": "tokenId",
                    "type": "uint256"
                }
            ],
            "name": "Transfer",
            "type": "event"
        },
        {
            "inputs": [
                {
                    "internalType": "address",
                    "name": "to",
                    "type": "address"
                },
                {
                    "internalType": "uint256",
                    "name": "tokenId",
                    "type": "uint256"
                }
            ],
            "name": "approve",
            "outputs": [],
            "stateMutability": "nonpayable",
            "type": "function"
        },
        {
            "inputs": [
                {
                    "internalType": "address",
                    "name": "owner",
                    "type": "address"
                }
            ],
            "name": "balanceOf",
            "outputs": [
                {
                    "internalType": "uint256",
                    "name": "",
                    "type": "uint256"
                }
            ],
            "stateMutability": "view",
            "type": "function"
        },
        {
            "inputs": [
                {
                    "internalType": "uint256",
                    "name": "tokenId",
                    "type": "uint256"
                }
            ],
            "name": "getApproved",
            "outputs": [
                {
                    "internalType": "address",
                    "name": "",
                    "type": "address"
                }
            ],
            "stateMutability": "view",
            "type": "function"
        },
        {
            "inputs": [],
            "name": "getTotalNFTsMintedSoFar",
            "outputs": [
                {
                    "internalType": "uint256",
                    "name": "",
                    "type": "uint256"
                }
            ],
            "stateMutability": "view",
            "type": "function"
        },
        {
            "inputs": [
                {
                    "internalType": "address",
                    "name": "owner",
                    "type": "address"
                },
                {
                    "internalType": "address",
                    "name": "operator",
                    "type": "address"
                }
            ],
            "name": "isApprovedForAll",
            "outputs": [
                {
                    "internalType": "bool",
                    "name": "",
                    "type": "bool"
                }
            ],
            "stateMutability": "view",
            "type": "function"
        },
        {
            "inputs": [],
            "name": "makeAnEpicNFT",
            "outputs": [],
            "stateMutability": "nonpayable",
            "type": "function"
        },
        {
            "inputs": [],
            "name": "maxSupply",
            "outputs": [
                {
                    "internalType": "uint256",
                    "name": "",
                    "type": "uint256"
                }
            ],
            "stateMutability": "view",
            "type": "function"
        },
        {
            "inputs": [],
            "name": "name",
            "outputs": [
                {
                    "internalType": "string",
                    "name": "",
                    "type": "string"
                }
            ],
            "stateMutability": "view",
            "type": "function"
        },
        {
            "inputs": [
                {
                    "internalType": "uint256",
                    "name": "tokenId",
                    "type": "uint256"
                }
            ],
            "name": "ownerOf",
            "outputs": [
                {
                    "internalType": "address",
                    "name": "",
                    "type": "address"
                }
            ],
            "stateMutability": "view",
            "type": "function"
        },
        {
            "inputs": [
                {
                    "internalType": "uint256",
                    "name": "tokenId",
                    "type": "uint256"
                }
            ],
            "name": "pickRandomColor",
            "outputs": [
                {
                    "internalType": "string",
                    "name": "",
                    "type": "string"
                }
            ],
            "stateMutability": "view",
            "type": "function"
        },
        {
            "inputs": [
                {
                    "internalType": "uint256",
                    "name": "tokenId",
                    "type": "uint256"
                }
            ],
            "name": "pickRandomFirstWord",
            "outputs": [
                {
                    "internalType": "string",
                    "name": "",
                    "type": "string"
                }
            ],
            "stateMutability": "view",
            "type": "function"
        },
        {
            "inputs": [
                {
                    "internalType": "uint256",
                    "name": "tokenId",
                    "type": "uint256"
                }
            ],
            "name": "pickRandomSecondWord",
            "outputs": [
                {
                    "internalType": "string",
                    "name": "",
                    "type": "string"
                }
            ],
            "stateMutability": "view",
            "type": "function"
        },
        {
            "inputs": [
                {
                    "internalType": "uint256",
                    "name": "tokenId",
                    "type": "uint256"
                }
            ],
            "name": "pickRandomThirdWord",
            "outputs": [
                {
                    "internalType": "string",
                    "name": "",
                    "type": "string"
                }
            ],
            "stateMutability": "view",
            "type": "function"
        },
        {
            "inputs": [
                {
                    "internalType": "address",
                    "name": "from",
                    "type": "address"
                },
                {
                    "internalType": "address",
                    "name": "to",
                    "type": "address"
                },
                {
                    "internalType": "uint256",
                    "name": "tokenId",
                    "type": "uint256"
                }
            ],
            "name": "safeTransferFrom",
            "outputs": [],
            "stateMutability": "nonpayable",
            "type": "function"
        },
        {
            "inputs": [
                {
                    "internalType": "address",
                    "name": "from",
                    "type": "address"
                },
                {
                    "internalType": "address",
                    "name": "to",
                    "type": "address"
                },
                {
                    "internalType": "uint256",
                    "name": "tokenId",
                    "type": "uint256"
                },
                {
                    "internalType": "bytes",
                    "name": "_data",
                    "type": "bytes"
                }
            ],
            "name": "safeTransferFrom",
            "outputs": [],
            "stateMutability": "nonpayable",
            "type": "function"
        },
        {
            "inputs": [
                {
                    "internalType": "address",
                    "name": "operator",
                    "type": "address"
                },
                {
                    "internalType": "bool",
                    "name": "approved",
                    "type": "bool"
                }
            ],
            "name": "setApprovalForAll",
            "outputs": [],
            "stateMutability": "nonpayable",
            "type": "function"
        },
        {
            "inputs": [
                {
                    "internalType": "bytes4",
                    "name": "interfaceId",
                    "type": "bytes4"
                }
            ],
            "name": "supportsInterface",
            "outputs": [
                {
                    "internalType": "bool",
                    "name": "",
                    "type": "bool"
                }
            ],
            "stateMutability": "view",
            "type": "function"
        },
        {
            "inputs": [],
            "name": "symbol",
            "outputs": [
                {
                    "internalType": "string",
                    "name": "",
                    "type": "string"
                }
            ],
            "stateMutability": "view",
            "type": "function"
        },
        {
            "inputs": [
                {
                    "internalType": "uint256",
                    "name": "tokenId",
                    "type": "uint256"
                }
            ],
            "name": "tokenURI",
            "outputs": [
                {
                    "internalType": "string",
                    "name": "",
                    "type": "string"
                }
            ],
            "stateMutability": "view",
            "type": "function"
        },
        {
            "inputs": [
                {
                    "internalType": "address",
                    "name": "from",
                    "type": "address"
                },
                {
                    "internalType": "address",
                    "name": "to",
                    "type": "address"
                },
                {
                    "internalType": "uint256",
                    "name": "tokenId",
                    "type": "uint256"
                }
            ],
            "name": "transferFrom",
            "outputs": [],
            "stateMutability": "nonpayable",
            "type": "function"
        }
    ],
    "bytecode": "0x6080604052603260085560405180610100016040528060d3815260200162004ee560d39139600990805190602001906200003b92919062000fd0565b5060405180608001604052806056815260200162004fb860569139600a90805190602001906200006d92919062000fd0565b506040518061026001604052806040518060400160405280600281526020017f474d00000000000000000000000000000000000000000000000000000000000081525081526020016040518060400160405280600281526020017f474e00000000000000000000000000000000000000000000000000000000000081525081526020016040518060400160405280600381526020017f536572000000000000000000000000000000000000000000000000000000000081525081526020016040518060400160405280600481526020017f4672656e0000000000000000000000000000000000000000000000000000000081525081526020016040518060400160405280600381526020017f474d49000000000000000000000000000000000000000000000000000000000081525081526020016040518060400160405280600581526020017f5741474d4900000000000000000000000000000000000000000000000000000081525081526020016040518060400160405280600481526020017f4e474d490000000000000000000000000000000000000000000000000000000081525081526020016040518060400160405280600281526020017f4f4700000000000000000000000000000000000000000000000000000000000081525081526020016040518060400160405280600481526020017f44594f520000000000000000000000000000000000000000000000000000000081525081526020016040518060400160405280600381526020017f4e4641000000000000000000000000000000000000000000000000000000000081525081526020016040518060400160405280600381526020017f48454e000000000000000000000000000000000000000000000000000000000081525081526020016040518060400160405280600381526020017f4c4647000000000000000000000000000000000000000000000000000000000081525081526020016040518060400160405280600381526020017f446564000000000000000000000000000000000000000000000000000000000081525081526020016040518060400160405280600381526020017f527567000000000000000000000000000000000000000000000000000000000081525081526020016040518060400160405280600581526020017f49594b594b00000000000000000000000000000000000000000000000000000081525081526020016040518060400160405280600981526020017f4d6561747370616365000000000000000000000000000000000000000000000081525081526020016040518060400160405280600681526020017f44656c697374000000000000000000000000000000000000000000000000000081525081526020016040518060400160405280600581526020017f416c70686100000000000000000000000000000000000000000000000000000081525081526020016040518060400160405280600381526020017f4f4d470000000000000000000000000000000000000000000000000000000000815250815250600b906013620004eb92919062001061565b50604051806101e001604052806040518060400160405280600981526020017f4d63446f6e616c6573000000000000000000000000000000000000000000000081525081526020016040518060400160405280600281526020017f4c4c00000000000000000000000000000000000000000000000000000000000081525081526020016040518060400160405280600281526020017f414200000000000000000000000000000000000000000000000000000000000081525081526020016040518060400160405280600d81526020017f47656e657261746976654172740000000000000000000000000000000000000081525081526020016040518060400160405280600381526020017f504650000000000000000000000000000000000000000000000000000000000081525081526020016040518060400160405280600981526020017f4c6f6f6b7352617265000000000000000000000000000000000000000000000081525081526020016040518060400160405280600781526020017f57656e4d6f6f6e0000000000000000000000000000000000000000000000000081525081526020016040518060400160405280600481526020017f417065640000000000000000000000000000000000000000000000000000000081525081526020016040518060400160405280600681526020017f55704f6e6c79000000000000000000000000000000000000000000000000000081525081526020016040518060400160405280600481526020017f4a5047730000000000000000000000000000000000000000000000000000000081525081526020016040518060400160405280600481526020017f4e6f6f620000000000000000000000000000000000000000000000000000000081525081526020016040518060400160405280600481526020017f506c65620000000000000000000000000000000000000000000000000000000081525081526020016040518060400160405280600881526020017f56616c68616c6c6100000000000000000000000000000000000000000000000081525081526020016040518060400160405280600e81526020017f536368656c6c696e67506f696e7400000000000000000000000000000000000081525081526020016040518060400160405280601281526020017f4974734d6f6e65794c61756e646572696e670000000000000000000000000000815250815250600c90600f6200087d929190620010c8565b506040518061018001604052806040518060400160405280600481526020017f464f4d4f0000000000000000000000000000000000000000000000000000000081525081526020016040518060400160405280600481526020017f434f50450000000000000000000000000000000000000000000000000000000081525081526020016040518060400160405280600381526020017f537a6e000000000000000000000000000000000000000000000000000000000081525081526020016040518060400160405280600381526020017f49524c000000000000000000000000000000000000000000000000000000000081525081526020016040518060400160405280600f81526020017f50726f6261626c794e6f7468696e67000000000000000000000000000000000081525081526020016040518060400160405280600c81526020017f546869734973546865576179000000000000000000000000000000000000000081525081526020016040518060400160405280600381526020017f466577000000000000000000000000000000000000000000000000000000000081525081526020016040518060400160405280600c81526020017f4761734f7247617357617273000000000000000000000000000000000000000081525081526020016040518060400160405280600a81526020017f446572697661746976650000000000000000000000000000000000000000000081525081526020016040518060400160405280600a81526020017f5365656d734c656769740000000000000000000000000000000000000000000081525081526020016040518060400160405280600781526020017f526f61646d61700000000000000000000000000000000000000000000000000081525081526020016040518060400160405280600381526020017f4c4f4c0000000000000000000000000000000000000000000000000000000000815250815250600d90600c62000b5e9291906200112f565b506040518061016001604052806040518060400160405280600781526020017f233143304335420000000000000000000000000000000000000000000000000081525081526020016040518060400160405280600781526020017f233038433241380000000000000000000000000000000000000000000000000081525081526020016040518060400160405280600581526020017f626c61636b00000000000000000000000000000000000000000000000000000081525081526020016040518060400160405280600781526020017f233344324338440000000000000000000000000000000000000000000000000081525081526020016040518060400160405280600781526020017f233931364242460000000000000000000000000000000000000000000000000081525081526020016040518060400160405280600781526020017f234239313634360000000000000000000000000000000000000000000000000081525081526020016040518060400160405280600781526020017f233130353635320000000000000000000000000000000000000000000000000081525081526020016040518060400160405280600781526020017f234446443843410000000000000000000000000000000000000000000000000081525081526020016040518060400160405280600781526020017f234646353135310000000000000000000000000000000000000000000000000081525081526020016040518060400160405280600781526020017f234646353135310000000000000000000000000000000000000000000000000081525081526020016040518060400160405280600781526020017f2334394646303000000000000000000000000000000000000000000000000000815250815250600e90600b62000e0492919062001196565b5034801562000e1257600080fd5b506040518060400160405280600981526020017f5371756172654e465400000000000000000000000000000000000000000000008152506040518060400160405280600681526020017f5351554152450000000000000000000000000000000000000000000000000000815250816000908051906020019062000e9792919062000fd0565b50806001908051906020019062000eb092919062000fd0565b50505062000efe6040518060400160405280601e81526020017f54686973206973206d79204e465420636f6e74726163742e20576f616821000081525062000f0460201b6200140d1760201c565b620013b7565b62000fa48160405160240162000f1b9190620012cb565b6040516020818303038152906040527f41304fac000000000000000000000000000000000000000000000000000000007bffffffffffffffffffffffffffffffffffffffffffffffffffffffff19166020820180517bffffffffffffffffffffffffffffffffffffffffffffffffffffffff838183161783525050505062000fa760201b60201c565b50565b60008151905060006a636f6e736f6c652e6c6f679050602083016000808483855afa5050505050565b82805462000fde9062001341565b90600052602060002090601f0160209004810192826200100257600085556200104e565b82601f106200101d57805160ff19168380011785556200104e565b828001600101855582156200104e579182015b828111156200104d57825182559160200191906001019062001030565b5b5090506200105d9190620011fd565b5090565b828054828255906000526020600020908101928215620010b5579160200282015b82811115620010b4578251829080519060200190620010a392919062000fd0565b509160200191906001019062001082565b5b509050620010c491906200121c565b5090565b8280548282559060005260206000209081019282156200111c579160200282015b828111156200111b5782518290805190602001906200110a92919062000fd0565b5091602001919060010190620010e9565b5b5090506200112b91906200121c565b5090565b82805482825590600052602060002090810192821562001183579160200282015b82811115620011825782518290805190602001906200117192919062000fd0565b509160200191906001019062001150565b5b5090506200119291906200121c565b5090565b828054828255906000526020600020908101928215620011ea579160200282015b82811115620011e9578251829080519060200190620011d892919062000fd0565b5091602001919060010190620011b7565b5b509050620011f991906200121c565b5090565b5b8082111562001218576000816000905550600101620011fe565b5090565b5b8082111562001240576000818162001236919062001244565b506001016200121d565b5090565b508054620012529062001341565b6000825580601f1062001266575062001287565b601f016020900490600052602060002090810190620012869190620011fd565b5b50565b60006200129782620012ef565b620012a38185620012fa565b9350620012b58185602086016200130b565b620012c081620013a6565b840191505092915050565b60006020820190508181036000830152620012e781846200128a565b905092915050565b600081519050919050565b600082825260208201905092915050565b60005b838110156200132b5780820151818401526020810190506200130e565b838111156200133b576000848401525b50505050565b600060028204905060018216806200135a57607f821691505b6020821081141562001371576200137062001377565b5b50919050565b7f4e487b7100000000000000000000000000000000000000000000000000000000600052602260045260246000fd5b6000601f19601f8301169050919050565b613b1e80620013c76000396000f3fe608060405234801561001057600080fd5b506004361061012c5760003560e01c806370a08231116100ad578063c575757a11610071578063c575757a14610367578063c87b56dd14610397578063d5abeb01146103c7578063de9d132f146103e5578063e985e9c5146103ef5761012c565b806370a08231146102b157806395d89b41146102e1578063a22cb465146102ff578063b187301f1461031b578063b88d4fde1461034b5761012c565b806323b872dd116100f457806323b872dd146101e95780632de38d681461020557806342842e0e14610235578063514dc8c6146102515780636352211e146102815761012c565b806301ffc9a714610131578063060475901461016157806306fdde031461017f578063081812fc1461019d578063095ea7b3146101cd575b600080fd5b61014b600480360381019061014691906126a0565b61041f565b6040516101589190613394565b60405180910390f35b610169610501565b604051610176919061360f565b60405180910390f35b610187610512565b60405161019491906133af565b60405180910390f35b6101b760048036038101906101b291906126f2565b6105a4565b6040516101c49190613304565b60405180910390f35b6101e760048036038101906101e29190612664565b610629565b005b61020360048036038101906101fe919061255e565b610741565b005b61021f600480360381019061021a91906126f2565b6107a1565b60405161022c91906133af565b60405180910390f35b61024f600480360381019061024a919061255e565b6108bf565b005b61026b600480360381019061026691906126f2565b6108df565b60405161027891906133af565b60405180910390f35b61029b600480360381019061029691906126f2565b6109fd565b6040516102a89190613304565b60405180910390f35b6102cb60048036038101906102c691906124f9565b610aaf565b6040516102d8919061360f565b60405180910390f35b6102e9610b67565b6040516102f691906133af565b60405180910390f35b61031960048036038101906103149190612628565b610bf9565b005b610335600480360381019061033091906126f2565b610d7a565b60405161034291906133af565b60405180910390f35b610365600480360381019061036091906125ad565b610e98565b005b610381600480360381019061037c91906126f2565b610efa565b60405161038e91906133af565b60405180910390f35b6103b160048036038101906103ac91906126f2565b611018565b6040516103be91906133af565b60405180910390f35b6103cf61116a565b6040516103dc919061360f565b60405180910390f35b6103ed611170565b005b61040960048036038101906104049190612522565b611379565b6040516104169190613394565b60405180910390f35b60007f80ac58cd000000000000000000000000000000000000000000000000000000007bffffffffffffffffffffffffffffffffffffffffffffffffffffffff1916827bffffffffffffffffffffffffffffffffffffffffffffffffffffffff191614806104ea57507f5b5e139f000000000000000000000000000000000000000000000000000000007bffffffffffffffffffffffffffffffffffffffffffffffffffffffff1916827bffffffffffffffffffffffffffffffffffffffffffffffffffffffff1916145b806104fa57506104f9826114a6565b5b9050919050565b600061050d6007611510565b905090565b606060008054610521906138ae565b80601f016020809104026020016040519081016040528092919081815260200182805461054d906138ae565b801561059a5780601f1061056f5761010080835404028352916020019161059a565b820191906000526020600020905b81548152906001019060200180831161057d57829003601f168201915b5050505050905090565b60006105af8261151e565b6105ee576040517f08c379a00000000000000000000000000000000000000000000000000000000081526004016105e59061356f565b60405180910390fd5b6004600083815260200190815260200160002060009054906101000a900473ffffffffffffffffffffffffffffffffffffffff169050919050565b6000610634826109fd565b90508073ffffffffffffffffffffffffffffffffffffffff168373ffffffffffffffffffffffffffffffffffffffff1614156106a5576040517f08c379a000000000000000000000000000000000000000000000000000000000815260040161069c906135cf565b60405180910390fd5b8073ffffffffffffffffffffffffffffffffffffffff166106c461158a565b73ffffffffffffffffffffffffffffffffffffffff1614806106f357506106f2816106ed61158a565b611379565b5b610732576040517f08c379a0000000000000000000000000000000000000000000000000000000008152600401610729906134af565b60405180910390fd5b61073c8383611592565b505050565b61075261074c61158a565b8261164b565b610791576040517f08c379a0000000000000000000000000000000000000000000000000000000008152600401610788906135ef565b60405180910390fd5b61079c838383611729565b505050565b606060006107d56107b184611985565b6040516020016107c1919061329e565b604051602081830303815290604052611b32565b9050600b80549050816107e89190613929565b9050600b8181548110610824577f4e487b7100000000000000000000000000000000000000000000000000000000600052603260045260246000fd5b906000526020600020018054610839906138ae565b80601f0160208091040260200160405190810160405280929190818152602001828054610865906138ae565b80156108b25780601f10610887576101008083540402835291602001916108b2565b820191906000526020600020905b81548152906001019060200180831161089557829003601f168201915b5050505050915050919050565b6108da83838360405180602001604052806000815250610e98565b505050565b606060006109136108ef84611985565b6040516020016108ff91906132e2565b604051602081830303815290604052611b32565b9050600e80549050816109269190613929565b9050600e8181548110610962577f4e487b7100000000000000000000000000000000000000000000000000000000600052603260045260246000fd5b906000526020600020018054610977906138ae565b80601f01602080910402602001604051908101604052809291908181526020018280546109a3906138ae565b80156109f05780601f106109c5576101008083540402835291602001916109f0565b820191906000526020600020905b8154815290600101906020018083116109d357829003601f168201915b5050505050915050919050565b6000806002600084815260200190815260200160002060009054906101000a900473ffffffffffffffffffffffffffffffffffffffff169050600073ffffffffffffffffffffffffffffffffffffffff168173ffffffffffffffffffffffffffffffffffffffff161415610aa6576040517f08c379a0000000000000000000000000000000000000000000000000000000008152600401610a9d906134ef565b60405180910390fd5b80915050919050565b60008073ffffffffffffffffffffffffffffffffffffffff168273ffffffffffffffffffffffffffffffffffffffff161415610b20576040517f08c379a0000000000000000000000000000000000000000000000000000000008152600401610b17906134cf565b60405180910390fd5b600360008373ffffffffffffffffffffffffffffffffffffffff1673ffffffffffffffffffffffffffffffffffffffff168152602001908152602001600020549050919050565b606060018054610b76906138ae565b80601f0160208091040260200160405190810160405280929190818152602001828054610ba2906138ae565b8015610bef5780601f10610bc457610100808354040283529160200191610bef565b820191906000526020600020905b815481529060010190602001808311610bd257829003601f168201915b5050505050905090565b610c0161158a565b73ffffffffffffffffffffffffffffffffffffffff168273ffffffffffffffffffffffffffffffffffffffff161415610c6f576040517f08c379a0000000000000000000000000000000000000000000000000000000008152600401610c669061346f565b60405180910390fd5b8060056000610c7c61158a565b73ffffffffffffffffffffffffffffffffffffffff1673ffffffffffffffffffffffffffffffffffffffff16815260200190815260200160002060008473ffffffffffffffffffffffffffffffffffffffff1673ffffffffffffffffffffffffffffffffffffffff16815260200190815260200160002060006101000a81548160ff0219169083151502179055508173ffffffffffffffffffffffffffffffffffffffff16610d2961158a565b73ffffffffffffffffffffffffffffffffffffffff167f17307eab39ab6107e8899845ad3d59bd9653f200f220920489ca2b5937696c3183604051610d6e9190613394565b60405180910390a35050565b60606000610dae610d8a84611985565b604051602001610d9a9190613237565b604051602081830303815290604052611b32565b9050600c8054905081610dc19190613929565b9050600c8181548110610dfd577f4e487b7100000000000000000000000000000000000000000000000000000000600052603260045260246000fd5b906000526020600020018054610e12906138ae565b80601f0160208091040260200160405190810160405280929190818152602001828054610e3e906138ae565b8015610e8b5780601f10610e6057610100808354040283529160200191610e8b565b820191906000526020600020905b815481529060010190602001808311610e6e57829003601f168201915b5050505050915050919050565b610ea9610ea361158a565b8361164b565b610ee8576040517f08c379a0000000000000000000000000000000000000000000000000000000008152600401610edf906135ef565b60405180910390fd5b610ef484848484611b65565b50505050565b60606000610f2e610f0a84611985565b604051602001610f1a9190613215565b604051602081830303815290604052611b32565b9050600d8054905081610f419190613929565b9050600d8181548110610f7d577f4e487b7100000000000000000000000000000000000000000000000000000000600052603260045260246000fd5b906000526020600020018054610f92906138ae565b80601f0160208091040260200160405190810160405280929190818152602001828054610fbe906138ae565b801561100b5780601f10610fe05761010080835404028352916020019161100b565b820191906000526020600020905b815481529060010190602001808311610fee57829003601f168201915b5050505050915050919050565b60606110238261151e565b611062576040517f08c379a00000000000000000000000000000000000000000000000000000000081526004016110599061354f565b60405180910390fd5b6000600660008481526020019081526020016000208054611082906138ae565b80601f01602080910402602001604051908101604052809291908181526020018280546110ae906138ae565b80156110fb5780601f106110d0576101008083540402835291602001916110fb565b820191906000526020600020905b8154815290600101906020018083116110de57829003601f168201915b50505050509050600061110c611bc1565b9050600081511415611122578192505050611165565b60008251111561115757808260405160200161113f929190613161565b60405160208183030381529060405292505050611165565b61116084611bd8565b925050505b919050565b60085481565b600061117c6007611510565b905060085481111561118d57600080fd5b6000611198826107a1565b905060006111a583610d7a565b905060006111b284610efa565b905060008383836040516020016111cb93929190613185565b604051602081830303815290604052905060006111e7866108df565b90506000600982600a8560405160200161120494939291906131cc565b604051602081830303815290604052905060006112498461122484611c7f565b604051602001611235929190613259565b604051602081830303815290604052611c7f565b905060008160405160200161125e91906132c0565b60405160208183030381529060405290506112ad6040518060400160405280601581526020017f0a2d2d2d2d2d2d2d2d2d2d2d2d2d2d2d2d2d2d2d2d000000000000000000000081525061140d565b6112b68161140d565b6112f46040518060400160405280601581526020017f2d2d2d2d2d2d2d2d2d2d2d2d2d2d2d2d2d2d2d2d0a000000000000000000000081525061140d565b6112fe338a611e3d565b6113088982611e5b565b6113126007611ecf565b611335604051806060016040528060258152602001613a84602591398a33611ee5565b7febb98688741ffa4c7589bf325de30cf7becb63de567842e1ccdb6cb949fdc82c338a60405161136692919061336b565b60405180910390a1505050505050505050565b6000600560008473ffffffffffffffffffffffffffffffffffffffff1673ffffffffffffffffffffffffffffffffffffffff16815260200190815260200160002060008373ffffffffffffffffffffffffffffffffffffffff1673ffffffffffffffffffffffffffffffffffffffff16815260200190815260200160002060009054906101000a900460ff16905092915050565b6114a38160405160240161142191906133af565b6040516020818303038152906040527f41304fac000000000000000000000000000000000000000000000000000000007bffffffffffffffffffffffffffffffffffffffffffffffffffffffff19166020820180517bffffffffffffffffffffffffffffffffffffffffffffffffffffffff8381831617835250505050611f84565b50565b60007f01ffc9a7000000000000000000000000000000000000000000000000000000007bffffffffffffffffffffffffffffffffffffffffffffffffffffffff1916827bffffffffffffffffffffffffffffffffffffffffffffffffffffffff1916149050919050565b600081600001549050919050565b60008073ffffffffffffffffffffffffffffffffffffffff166002600084815260200190815260200160002060009054906101000a900473ffffffffffffffffffffffffffffffffffffffff1673ffffffffffffffffffffffffffffffffffffffff1614159050919050565b600033905090565b816004600083815260200190815260200160002060006101000a81548173ffffffffffffffffffffffffffffffffffffffff021916908373ffffffffffffffffffffffffffffffffffffffff160217905550808273ffffffffffffffffffffffffffffffffffffffff16611605836109fd565b73ffffffffffffffffffffffffffffffffffffffff167f8c5be1e5ebec7d5bd14f71427d1e84f3dd0314c0f7b2291e5b200ac8c7c3b92560405160405180910390a45050565b60006116568261151e565b611695576040517f08c379a000000000000000000000000000000000000000000000000000000000815260040161168c9061348f565b60405180910390fd5b60006116a0836109fd565b90508073ffffffffffffffffffffffffffffffffffffffff168473ffffffffffffffffffffffffffffffffffffffff16148061170f57508373ffffffffffffffffffffffffffffffffffffffff166116f7846105a4565b73ffffffffffffffffffffffffffffffffffffffff16145b80611720575061171f8185611379565b5b91505092915050565b8273ffffffffffffffffffffffffffffffffffffffff16611749826109fd565b73ffffffffffffffffffffffffffffffffffffffff161461179f576040517f08c379a00000000000000000000000000000000000000000000000000000000081526004016117969061358f565b60405180910390fd5b600073ffffffffffffffffffffffffffffffffffffffff168273ffffffffffffffffffffffffffffffffffffffff16141561180f576040517f08c379a00000000000000000000000000000000000000000000000000000000081526004016118069061344f565b60405180910390fd5b61181a838383611fad565b611825600082611592565b6001600360008573ffffffffffffffffffffffffffffffffffffffff1673ffffffffffffffffffffffffffffffffffffffff168152602001908152602001600020600082825461187591906137c4565b925050819055506001600360008473ffffffffffffffffffffffffffffffffffffffff1673ffffffffffffffffffffffffffffffffffffffff16815260200190815260200160002060008282546118cc91906136e3565b92505081905550816002600083815260200190815260200160002060006101000a81548173ffffffffffffffffffffffffffffffffffffffff021916908373ffffffffffffffffffffffffffffffffffffffff160217905550808273ffffffffffffffffffffffffffffffffffffffff168473ffffffffffffffffffffffffffffffffffffffff167fddf252ad1be2c89b69c2b068fc378daa952ba7f163c4a11628f55a4df523b3ef60405160405180910390a4505050565b606060008214156119cd576040518060400160405280600181526020017f30000000000000000000000000000000000000000000000000000000000000008152509050611b2d565b600082905060005b600082146119ff5780806119e8906138e0565b915050600a826119f89190613739565b91506119d5565b60008167ffffffffffffffff811115611a41577f4e487b7100000000000000000000000000000000000000000000000000000000600052604160045260246000fd5b6040519080825280601f01601f191660200182016040528015611a735781602001600182028036833780820191505090505b5090505b60008514611b2657600182611a8c91906137c4565b9150600a85611a9b9190613929565b6030611aa791906136e3565b60f81b818381518110611ae3577f4e487b7100000000000000000000000000000000000000000000000000000000600052603260045260246000fd5b60200101907effffffffffffffffffffffffffffffffffffffffffffffffffffffffffffff1916908160001a905350600a85611b1f9190613739565b9450611a77565b8093505050505b919050565b600081604051602001611b45919061314a565b6040516020818303038152906040528051906020012060001c9050919050565b611b70848484611729565b611b7c84848484611fb2565b611bbb576040517f08c379a0000000000000000000000000000000000000000000000000000000008152600401611bb29061340f565b60405180910390fd5b50505050565b606060405180602001604052806000815250905090565b6060611be38261151e565b611c22576040517f08c379a0000000000000000000000000000000000000000000000000000000008152600401611c19906135af565b60405180910390fd5b6000611c2c611bc1565b90506000815111611c4c5760405180602001604052806000815250611c77565b80611c5684611985565b604051602001611c67929190613161565b6040516020818303038152906040525b915050919050565b60606000825190506000811415611ca85760405180602001604052806000815250915050611e38565b60006003600283611cb991906136e3565b611cc39190613739565b6004611ccf919061376a565b90506000602082611ce091906136e3565b67ffffffffffffffff811115611d1f577f4e487b7100000000000000000000000000000000000000000000000000000000600052604160045260246000fd5b6040519080825280601f01601f191660200182016040528015611d515781602001600182028036833780820191505090505b5090506000604051806060016040528060408152602001613aa9604091399050600181016020830160005b86811015611df55760038101905062ffffff818a015116603f8160121c168401518060081b905060ff603f83600c1c1686015116810190508060081b905060ff603f8360061c1686015116810190508060081b905060ff603f831686015116810190508060e01b90508084526004840193505050611d7c565b506003860660018114611e0f5760028114611e1f57611e2a565b613d3d60f01b6002830352611e2a565b603d60f81b60018303525b508484525050819450505050505b919050565b611e57828260405180602001604052806000815250612149565b5050565b611e648261151e565b611ea3576040517f08c379a0000000000000000000000000000000000000000000000000000000008152600401611e9a9061350f565b60405180910390fd5b80600660008481526020019081526020016000209080519060200190611eca929190612385565b505050565b6001816000016000828254019250508190555050565b611f7f838383604051602401611efd939291906133d1565b6040516020818303038152906040527fe3849f79000000000000000000000000000000000000000000000000000000007bffffffffffffffffffffffffffffffffffffffffffffffffffffffff19166020820180517bffffffffffffffffffffffffffffffffffffffffffffffffffffffff8381831617835250505050611f84565b505050565b60008151905060006a636f6e736f6c652e6c6f679050602083016000808483855afa5050505050565b505050565b6000611fd38473ffffffffffffffffffffffffffffffffffffffff166121a4565b1561213c578373ffffffffffffffffffffffffffffffffffffffff1663150b7a02611ffc61158a565b8786866040518563ffffffff1660e01b815260040161201e949392919061331f565b602060405180830381600087803b15801561203857600080fd5b505af192505050801561206957506040513d601f19601f8201168201806040525081019061206691906126c9565b60015b6120ec573d8060008114612099576040519150601f19603f3d011682016040523d82523d6000602084013e61209e565b606091505b506000815114156120e4576040517f08c379a00000000000000000000000000000000000000000000000000000000081526004016120db9061340f565b60405180910390fd5b805181602001fd5b63150b7a0260e01b7bffffffffffffffffffffffffffffffffffffffffffffffffffffffff1916817bffffffffffffffffffffffffffffffffffffffffffffffffffffffff191614915050612141565b600190505b949350505050565b61215383836121b7565b6121606000848484611fb2565b61219f576040517f08c379a00000000000000000000000000000000000000000000000000000000081526004016121969061340f565b60405180910390fd5b505050565b600080823b905060008111915050919050565b600073ffffffffffffffffffffffffffffffffffffffff168273ffffffffffffffffffffffffffffffffffffffff161415612227576040517f08c379a000000000000000000000000000000000000000000000000000000000815260040161221e9061352f565b60405180910390fd5b6122308161151e565b15612270576040517f08c379a00000000000000000000000000000000000000000000000000000000081526004016122679061342f565b60405180910390fd5b61227c60008383611fad565b6001600360008473ffffffffffffffffffffffffffffffffffffffff1673ffffffffffffffffffffffffffffffffffffffff16815260200190815260200160002060008282546122cc91906136e3565b92505081905550816002600083815260200190815260200160002060006101000a81548173ffffffffffffffffffffffffffffffffffffffff021916908373ffffffffffffffffffffffffffffffffffffffff160217905550808273ffffffffffffffffffffffffffffffffffffffff16600073ffffffffffffffffffffffffffffffffffffffff167fddf252ad1be2c89b69c2b068fc378daa952ba7f163c4a11628f55a4df523b3ef60405160405180910390a45050565b828054612391906138ae565b90600052602060002090601f0160209004810192826123b357600085556123fa565b82601f106123cc57805160ff19168380011785556123fa565b828001600101855582156123fa579182015b828111156123f95782518255916020019190600101906123de565b5b509050612407919061240b565b5090565b5b8082111561242457600081600090555060010161240c565b5090565b600061243b6124368461365b565b61362a565b90508281526020810184848401111561245357600080fd5b61245e84828561386c565b509392505050565b60008135905061247581613a27565b92915050565b60008135905061248a81613a3e565b92915050565b60008135905061249f81613a55565b92915050565b6000815190506124b481613a55565b92915050565b600082601f8301126124cb57600080fd5b81356124db848260208601612428565b91505092915050565b6000813590506124f381613a6c565b92915050565b60006020828403121561250b57600080fd5b600061251984828501612466565b91505092915050565b6000806040838503121561253557600080fd5b600061254385828601612466565b925050602061255485828601612466565b9150509250929050565b60008060006060848603121561257357600080fd5b600061258186828701612466565b935050602061259286828701612466565b92505060406125a3868287016124e4565b9150509250925092565b600080600080608085870312156125c357600080fd5b60006125d187828801612466565b94505060206125e287828801612466565b93505060406125f3878288016124e4565b925050606085013567ffffffffffffffff81111561261057600080fd5b61261c878288016124ba565b91505092959194509250565b6000806040838503121561263b57600080fd5b600061264985828601612466565b925050602061265a8582860161247b565b9150509250929050565b6000806040838503121561267757600080fd5b600061268585828601612466565b9250506020612696858286016124e4565b9150509250929050565b6000602082840312156126b257600080fd5b60006126c084828501612490565b91505092915050565b6000602082840312156126db57600080fd5b60006126e9848285016124a5565b91505092915050565b60006020828403121561270457600080fd5b6000612712848285016124e4565b91505092915050565b612724816137f8565b82525050565b6127338161380a565b82525050565b6000612744826136a0565b61274e81856136b6565b935061275e81856020860161387b565b61276781613a16565b840191505092915050565b600061277d826136ab565b61278781856136c7565b935061279781856020860161387b565b6127a081613a16565b840191505092915050565b60006127b6826136ab565b6127c081856136d8565b93506127d081856020860161387b565b80840191505092915050565b600081546127e9816138ae565b6127f381866136d8565b9450600182166000811461280e576001811461281f57612852565b60ff19831686528186019350612852565b6128288561368b565b60005b8381101561284a5781548189015260018201915060208101905061282b565b838801955050505b50505092915050565b60006128686032836136c7565b91507f4552433732313a207472616e7366657220746f206e6f6e20455243373231526560008301527f63656976657220696d706c656d656e74657200000000000000000000000000006020830152604082019050919050565b60006128ce601c836136c7565b91507f4552433732313a20746f6b656e20616c7265616479206d696e746564000000006000830152602082019050919050565b600061290e600a836136d8565b91507f54484952445f574f5244000000000000000000000000000000000000000000006000830152600a82019050919050565b600061294e6024836136c7565b91507f4552433732313a207472616e7366657220746f20746865207a65726f2061646460008301527f72657373000000000000000000000000000000000000000000000000000000006020830152604082019050919050565b60006129b46019836136c7565b91507f4552433732313a20617070726f766520746f2063616c6c6572000000000000006000830152602082019050919050565b60006129f46063836136d8565b91507f222c20226465736372697074696f6e223a20224120686967686c79206163636c60008301527f61696d656420636f6c6c656374696f6e206f6620737175617265732e222c202260208301527f696d616765223a2022646174613a696d6167652f7376672b786d6c3b6261736560408301527f36342c00000000000000000000000000000000000000000000000000000000006060830152606382019050919050565b6000612aa6600b836136d8565b91507f5345434f4e445f574f52440000000000000000000000000000000000000000006000830152600b82019050919050565b6000612ae6602c836136c7565b91507f4552433732313a206f70657261746f7220717565727920666f72206e6f6e657860008301527f697374656e7420746f6b656e00000000000000000000000000000000000000006020830152604082019050919050565b6000612b4c600d836136d8565b91507f3c2f746578743e3c2f7376673e000000000000000000000000000000000000006000830152600d82019050919050565b6000612b8c6038836136c7565b91507f4552433732313a20617070726f76652063616c6c6572206973206e6f74206f7760008301527f6e6572206e6f7220617070726f76656420666f7220616c6c00000000000000006020830152604082019050919050565b6000612bf2602a836136c7565b91507f4552433732313a2062616c616e636520717565727920666f7220746865207a6560008301527f726f2061646472657373000000000000000000000000000000000000000000006020830152604082019050919050565b6000612c586029836136c7565b91507f4552433732313a206f776e657220717565727920666f72206e6f6e657869737460008301527f656e7420746f6b656e00000000000000000000000000000000000000000000006020830152604082019050919050565b6000612cbe602e836136c7565b91507f45524337323155524953746f726167653a2055524920736574206f66206e6f6e60008301527f6578697374656e7420746f6b656e0000000000000000000000000000000000006020830152604082019050919050565b6000612d246002836136d8565b91507f227d0000000000000000000000000000000000000000000000000000000000006000830152600282019050919050565b6000612d646020836136c7565b91507f4552433732313a206d696e7420746f20746865207a65726f20616464726573736000830152602082019050919050565b6000612da46031836136c7565b91507f45524337323155524953746f726167653a2055524920717565727920666f722060008301527f6e6f6e6578697374656e7420746f6b656e0000000000000000000000000000006020830152604082019050919050565b6000612e0a602c836136c7565b91507f4552433732313a20617070726f76656420717565727920666f72206e6f6e657860008301527f697374656e7420746f6b656e00000000000000000000000000000000000000006020830152604082019050919050565b6000612e706029836136c7565b91507f4552433732313a207472616e73666572206f6620746f6b656e2074686174206960008301527f73206e6f74206f776e00000000000000000000000000000000000000000000006020830152604082019050919050565b6000612ed6602f836136c7565b91507f4552433732314d657461646174613a2055524920717565727920666f72206e6f60008301527f6e6578697374656e7420746f6b656e00000000000000000000000000000000006020830152604082019050919050565b6000612f3c600a836136d8565b91507f7b226e616d65223a2022000000000000000000000000000000000000000000006000830152600a82019050919050565b6000612f7c6021836136c7565b91507f4552433732313a20617070726f76616c20746f2063757272656e74206f776e6560008301527f72000000000000000000000000000000000000000000000000000000000000006020830152604082019050919050565b6000612fe2600a836136d8565b91507f46495253545f574f5244000000000000000000000000000000000000000000006000830152600a82019050919050565b6000613022601d836136d8565b91507f646174613a6170706c69636174696f6e2f6a736f6e3b6261736536342c0000006000830152601d82019050919050565b60006130626031836136c7565b91507f4552433732313a207472616e736665722063616c6c6572206973206e6f74206f60008301527f776e6572206e6f7220617070726f7665640000000000000000000000000000006020830152604082019050919050565b60006130c86005836136d8565b91507f434f4c4f520000000000000000000000000000000000000000000000000000006000830152600582019050919050565b60006131086001836136d8565b91507f7c000000000000000000000000000000000000000000000000000000000000006000830152600182019050919050565b61314481613862565b82525050565b600061315682846127ab565b915081905092915050565b600061316d82856127ab565b915061317982846127ab565b91508190509392505050565b600061319182866127ab565b915061319c826130fb565b91506131a882856127ab565b91506131b3826130fb565b91506131bf82846127ab565b9150819050949350505050565b60006131d882876127dc565b91506131e482866127ab565b91506131f082856127dc565b91506131fc82846127ab565b915061320782612b3f565b915081905095945050505050565b600061322082612901565b915061322c82846127ab565b915081905092915050565b600061324282612a99565b915061324e82846127ab565b915081905092915050565b600061326482612f2f565b915061327082856127ab565b915061327b826129e7565b915061328782846127ab565b915061329282612d17565b91508190509392505050565b60006132a982612fd5565b91506132b582846127ab565b915081905092915050565b60006132cb82613015565b91506132d782846127ab565b915081905092915050565b60006132ed826130bb565b91506132f982846127ab565b915081905092915050565b6000602082019050613319600083018461271b565b92915050565b6000608082019050613334600083018761271b565b613341602083018661271b565b61334e604083018561313b565b81810360608301526133608184612739565b905095945050505050565b6000604082019050613380600083018561271b565b61338d602083018461313b565b9392505050565b60006020820190506133a9600083018461272a565b92915050565b600060208201905081810360008301526133c98184612772565b905092915050565b600060608201905081810360008301526133eb8186612772565b90506133fa602083018561313b565b613407604083018461271b565b949350505050565b600060208201905081810360008301526134288161285b565b9050919050565b60006020820190508181036000830152613448816128c1565b9050919050565b6000602082019050818103600083015261346881612941565b9050919050565b60006020820190508181036000830152613488816129a7565b9050919050565b600060208201905081810360008301526134a881612ad9565b9050919050565b600060208201905081810360008301526134c881612b7f565b9050919050565b600060208201905081810360008301526134e881612be5565b9050919050565b6000602082019050818103600083015261350881612c4b565b9050919050565b6000602082019050818103600083015261352881612cb1565b9050919050565b6000602082019050818103600083015261354881612d57565b9050919050565b6000602082019050818103600083015261356881612d97565b9050919050565b6000602082019050818103600083015261358881612dfd565b9050919050565b600060208201905081810360008301526135a881612e63565b9050919050565b600060208201905081810360008301526135c881612ec9565b9050919050565b600060208201905081810360008301526135e881612f6f565b9050919050565b6000602082019050818103600083015261360881613055565b9050919050565b6000602082019050613624600083018461313b565b92915050565b6000604051905081810181811067ffffffffffffffff82111715613651576136506139e7565b5b8060405250919050565b600067ffffffffffffffff821115613676576136756139e7565b5b601f19601f8301169050602081019050919050565b60008190508160005260206000209050919050565b600081519050919050565b600081519050919050565b600082825260208201905092915050565b600082825260208201905092915050565b600081905092915050565b60006136ee82613862565b91506136f983613862565b9250827fffffffffffffffffffffffffffffffffffffffffffffffffffffffffffffffff0382111561372e5761372d61395a565b5b828201905092915050565b600061374482613862565b915061374f83613862565b92508261375f5761375e613989565b5b828204905092915050565b600061377582613862565b915061378083613862565b9250817fffffffffffffffffffffffffffffffffffffffffffffffffffffffffffffffff04831182151516156137b9576137b861395a565b5b828202905092915050565b60006137cf82613862565b91506137da83613862565b9250828210156137ed576137ec61395a565b5b828203905092915050565b600061380382613842565b9050919050565b60008115159050919050565b60007fffffffff0000000000000000000000000000000000000000000000000000000082169050919050565b600073ffffffffffffffffffffffffffffffffffffffff82169050919050565b6000819050919050565b82818337600083830152505050565b60005b8381101561389957808201518184015260208101905061387e565b838111156138a8576000848401525b50505050565b600060028204905060018216806138c657607f821691505b602082108114156138da576138d96139b8565b5b50919050565b60006138eb82613862565b91507fffffffffffffffffffffffffffffffffffffffffffffffffffffffffffffffff82141561391e5761391d61395a565b5b600182019050919050565b600061393482613862565b915061393f83613862565b92508261394f5761394e613989565b5b828206905092915050565b7f4e487b7100000000000000000000000000000000000000000000000000000000600052601160045260246000fd5b7f4e487b7100000000000000000000000000000000000000000000000000000000600052601260045260246000fd5b7f4e487b7100000000000000000000000000000000000000000000000000000000600052602260045260246000fd5b7f4e487b7100000000000000000000000000000000000000000000000000000000600052604160045260246000fd5b6000601f19601f8301169050919050565b613a30816137f8565b8114613a3b57600080fd5b50565b613a478161380a565b8114613a5257600080fd5b50565b613a5e81613816565b8114613a6957600080fd5b50565b613a7581613862565b8114613a8057600080fd5b5056fe416e204e465420772f20494420257320686173206265656e206d696e74656420746f2025734142434445464748494a4b4c4d4e4f505152535455565758595a6162636465666768696a6b6c6d6e6f707172737475767778797a303132333435363738392b2fa2646970667358221220c17ed2eac88d0a4d8b1317b2935bf3cbbdc0164cebb4ab6b9c1a12f28decf69a64736f6c634300080000333c73766720786d6c6e733d27687474703a2f2f7777772e77332e6f72672f323030302f73766727207072657365727665417370656374526174696f3d27784d696e594d696e206d656574272076696577426f783d273020302033353020333530273e3c7374796c653e2e62617365207b2066696c6c3a2077686974653b20666f6e742d66616d696c793a2073657269663b20666f6e742d73697a653a20323470783b207d3c2f7374796c653e3c726563742077696474683d273130302527206865696768743d2731303025272066696c6c3d27272f3e3c7465787420783d273530252720793d273530252720636c6173733d27626173652720646f6d696e616e742d626173656c696e653d276d6964646c652720746578742d616e63686f723d276d6964646c65273e",
    "linkReferences": {},
    "deployedLinkReferences": {}
}